{
  "contractName": "HealthcareData",
  "abi": [
    {
      "anonymous": false,
      "inputs": [
        {
          "indexed": true,
          "internalType": "address",
          "name": "sender",
          "type": "address"
        },
        {
          "indexed": false,
          "internalType": "string",
          "name": "edrpouCode",
          "type": "string"
        }
      ],
      "name": "EDRPOUCodeAdded",
      "type": "event"
    },
    {
      "anonymous": false,
      "inputs": [
        {
          "indexed": true,
          "internalType": "address",
          "name": "sender",
          "type": "address"
        },
        {
          "indexed": false,
          "internalType": "string",
          "name": "facilityCode",
          "type": "string"
        }
      ],
      "name": "FacilityCodeAdded",
      "type": "event"
    },
    {
      "inputs": [
        {
          "internalType": "address",
          "name": "",
          "type": "address"
        }
      ],
      "name": "facilities",
      "outputs": [
        {
          "internalType": "string",
          "name": "edrpouCode",
          "type": "string"
        },
        {
          "internalType": "string",
          "name": "facilityCode",
          "type": "string"
        }
      ],
      "stateMutability": "view",
      "type": "function"
    },
    {
      "inputs": [
        {
          "internalType": "string",
          "name": "_edrpouCode",
          "type": "string"
        }
      ],
      "name": "addEDRPOUCode",
      "outputs": [],
      "stateMutability": "nonpayable",
      "type": "function"
    },
    {
      "inputs": [
        {
          "internalType": "string",
          "name": "_facilityCode",
          "type": "string"
        }
      ],
      "name": "addFacilityCode",
      "outputs": [],
      "stateMutability": "nonpayable",
      "type": "function"
    }
  ],
  "bytecode": "0x608060405234801561000f575f80fd5b506109028061001d5f395ff3fe608060405234801561000f575f80fd5b506004361061003f575f3560e01c806342657b9c14610043578063a208c38f1461005f578063b200dc1214610090575b5f80fd5b61005d6004803603810190610058919061045f565b6100ac565b005b61007960048036038101906100749190610500565b610149565b6040516100879291906105a5565b60405180910390f35b6100aa60048036038101906100a5919061045f565b610274565b005b805f803373ffffffffffffffffffffffffffffffffffffffff1673ffffffffffffffffffffffffffffffffffffffff1681526020019081526020015f205f0190816100f791906107dd565b503373ffffffffffffffffffffffffffffffffffffffff167fbd4dc188d6456493afb556cfef10e8f79da718d5bd9018f4b4ed297ebd84c2928260405161013e91906108ac565b60405180910390a250565b5f602052805f5260405f205f91509050805f01805461016790610607565b80601f016020809104026020016040519081016040528092919081815260200182805461019390610607565b80156101de5780601f106101b5576101008083540402835291602001916101de565b820191905f5260205f20905b8154815290600101906020018083116101c157829003601f168201915b5050505050908060010180546101f390610607565b80601f016020809104026020016040519081016040528092919081815260200182805461021f90610607565b801561026a5780601f106102415761010080835404028352916020019161026a565b820191905f5260205f20905b81548152906001019060200180831161024d57829003601f168201915b5050505050905082565b805f803373ffffffffffffffffffffffffffffffffffffffff1673ffffffffffffffffffffffffffffffffffffffff1681526020019081526020015f2060010190816102c091906107dd565b503373ffffffffffffffffffffffffffffffffffffffff167f5b885fd1950de1ef7e7fb26e4bc0b7b9f8a0157a33de4ef1814c9d7519d5d4f58260405161030791906108ac565b60405180910390a250565b5f604051905090565b5f80fd5b5f80fd5b5f80fd5b5f80fd5b5f601f19601f8301169050919050565b7f4e487b71000000000000000000000000000000000000000000000000000000005f52604160045260245ffd5b6103718261032b565b810181811067ffffffffffffffff821117156103905761038f61033b565b5b80604052505050565b5f6103a2610312565b90506103ae8282610368565b919050565b5f67ffffffffffffffff8211156103cd576103cc61033b565b5b6103d68261032b565b9050602081019050919050565b828183375f83830152505050565b5f6104036103fe846103b3565b610399565b90508281526020810184848401111561041f5761041e610327565b5b61042a8482856103e3565b509392505050565b5f82601f83011261044657610445610323565b5b81356104568482602086016103f1565b91505092915050565b5f602082840312156104745761047361031b565b5b5f82013567ffffffffffffffff8111156104915761049061031f565b5b61049d84828501610432565b91505092915050565b5f73ffffffffffffffffffffffffffffffffffffffff82169050919050565b5f6104cf826104a6565b9050919050565b6104df816104c5565b81146104e9575f80fd5b50565b5f813590506104fa816104d6565b92915050565b5f602082840312156105155761051461031b565b5b5f610522848285016104ec565b91505092915050565b5f81519050919050565b5f82825260208201905092915050565b5f5b83811015610562578082015181840152602081019050610547565b5f8484015250505050565b5f6105778261052b565b6105818185610535565b9350610591818560208601610545565b61059a8161032b565b840191505092915050565b5f6040820190508181035f8301526105bd818561056d565b905081810360208301526105d1818461056d565b90509392505050565b7f4e487b71000000000000000000000000000000000000000000000000000000005f52602260045260245ffd5b5f600282049050600182168061061e57607f821691505b602082108103610631576106306105da565b5b50919050565b5f819050815f5260205f209050919050565b5f6020601f8301049050919050565b5f82821b905092915050565b5f600883026106937fffffffffffffffffffffffffffffffffffffffffffffffffffffffffffffffff82610658565b61069d8683610658565b95508019841693508086168417925050509392505050565b5f819050919050565b5f819050919050565b5f6106e16106dc6106d7846106b5565b6106be565b6106b5565b9050919050565b5f819050919050565b6106fa836106c7565b61070e610706826106e8565b848454610664565b825550505050565b5f90565b610722610716565b61072d8184846106f1565b505050565b5b81811015610750576107455f8261071a565b600181019050610733565b5050565b601f8211156107955761076681610637565b61076f84610649565b8101602085101561077e578190505b61079261078a85610649565b830182610732565b50505b505050565b5f82821c905092915050565b5f6107b55f198460080261079a565b1980831691505092915050565b5f6107cd83836107a6565b9150826002028217905092915050565b6107e68261052b565b67ffffffffffffffff8111156107ff576107fe61033b565b5b6108098254610607565b610814828285610754565b5f60209050601f831160018114610845575f8415610833578287015190505b61083d85826107c2565b8655506108a4565b601f19841661085386610637565b5f5b8281101561087a57848901518255600182019150602085019450602081019050610855565b868310156108975784890151610893601f8916826107a6565b8355505b6001600288020188555050505b505050505050565b5f6020820190508181035f8301526108c4818461056d565b90509291505056fea2646970667358221220c238ecbd4e717454da5fc7faa50d776e1c58d5149c5d9a72addff004f1b4304564736f6c63430008150033",
  "immutableReferences": {},
  "source": "// SPDX-License-Identifier: MIT\r\npragma solidity ^0.8.0;\r\n\r\ncontract HealthcareData {\r\n    struct Facility {\r\n        string edrpouCode;\r\n        string facilityCode;\r\n    }\r\n\r\n    mapping(address => Facility) public facilities;\r\n\r\n    event EDRPOUCodeAdded(address indexed sender, string edrpouCode);\r\n    event FacilityCodeAdded(address indexed sender, string facilityCode);\r\n\r\n    function addEDRPOUCode(string memory _edrpouCode) public {\r\n        facilities[msg.sender].edrpouCode = _edrpouCode;\r\n        emit EDRPOUCodeAdded(msg.sender, _edrpouCode);\r\n    }\r\n\r\n    function addFacilityCode(string memory _facilityCode) public {\r\n        facilities[msg.sender].facilityCode = _facilityCode;\r\n        emit FacilityCodeAdded(msg.sender, _facilityCode);\r\n    }\r\n}\r\n",
  "sourcePath": "D:\\4 \\ \\dyplom\\contracts\\HealthcareData.sol",
  "compiler": {
    "name": "solc",
    "version": "0.8.21+commit.d9974bed.Emscripten.clang"
  },
  "schemaVersion": "3.4.16",
  "updatedAt": "2024-06-06T06:27:12.447Z",
  "devdoc": {
    "kind": "dev",
    "methods": {},
    "version": 1
  },
  "userdoc": {
    "kind": "user",
    "methods": {},
    "version": 1
  }
}