{
  "contractName": "MedicalData",
  "abi": [
    {
      "inputs": [
        {
          "internalType": "uint256",
          "name": "",
          "type": "uint256"
        }
      ],
      "name": "availabilityData",
      "outputs": [
        {
          "internalType": "string",
          "name": "birthDate",
          "type": "string"
        },
        {
          "internalType": "string",
          "name": "phoneNumber",
          "type": "string"
        },
        {
          "internalType": "string",
          "name": "priority",
          "type": "string"
        },
        {
          "internalType": "string",
          "name": "validityPeriod",
          "type": "string"
        },
        {
          "internalType": "string",
          "name": "serviceCode",
          "type": "string"
        },
        {
          "internalType": "string",
          "name": "edrpouCode",
          "type": "string"
        }
      ],
      "stateMutability": "view",
      "type": "function"
    },
    {
      "inputs": [
        {
          "internalType": "uint256",
          "name": "",
          "type": "uint256"
        }
      ],
      "name": "integrityAndAvailabilityData",
      "outputs": [
        {
          "internalType": "uint256",
          "name": "referralNumber",
          "type": "uint256"
        }
      ],
      "stateMutability": "view",
      "type": "function"
    },
    {
      "inputs": [
        {
          "internalType": "uint256",
          "name": "",
          "type": "uint256"
        }
      ],
      "name": "integrityData",
      "outputs": [
        {
          "internalType": "string",
          "name": "patientName",
          "type": "string"
        },
        {
          "internalType": "string",
          "name": "familyDoctorName",
          "type": "string"
        },
        {
          "internalType": "string",
          "name": "referralDate",
          "type": "string"
        },
        {
          "internalType": "string",
          "name": "medicalInstitutionName",
          "type": "string"
        },
        {
          "internalType": "string",
          "name": "medicalInstitutionAddress",
          "type": "string"
        }
      ],
      "stateMutability": "view",
      "type": "function"
    },
    {
      "inputs": [
        {
          "internalType": "uint256",
          "name": "_key",
          "type": "uint256"
        },
        {
          "internalType": "uint256",
          "name": "_referralNumber",
          "type": "uint256"
        }
      ],
      "name": "addIntegrityAndAvailabilityData",
      "outputs": [],
      "stateMutability": "nonpayable",
      "type": "function"
    },
    {
      "inputs": [
        {
          "internalType": "uint256",
          "name": "_key",
          "type": "uint256"
        },
        {
          "internalType": "string",
          "name": "_patientName",
          "type": "string"
        },
        {
          "internalType": "string",
          "name": "_familyDoctorName",
          "type": "string"
        },
        {
          "internalType": "string",
          "name": "_referralDate",
          "type": "string"
        },
        {
          "internalType": "string",
          "name": "_medicalInstitutionName",
          "type": "string"
        },
        {
          "internalType": "string",
          "name": "_medicalInstitutionAddress",
          "type": "string"
        }
      ],
      "name": "addIntegrityData",
      "outputs": [],
      "stateMutability": "nonpayable",
      "type": "function"
    },
    {
      "inputs": [
        {
          "internalType": "uint256",
          "name": "_key",
          "type": "uint256"
        },
        {
          "internalType": "string",
          "name": "_birthDate",
          "type": "string"
        },
        {
          "internalType": "string",
          "name": "_phoneNumber",
          "type": "string"
        },
        {
          "internalType": "string",
          "name": "_priority",
          "type": "string"
        },
        {
          "internalType": "string",
          "name": "_validityPeriod",
          "type": "string"
        },
        {
          "internalType": "string",
          "name": "_serviceCode",
          "type": "string"
        },
        {
          "internalType": "string",
          "name": "_edrpouCode",
          "type": "string"
        }
      ],
      "name": "addAvailabilityData",
      "outputs": [],
      "stateMutability": "nonpayable",
      "type": "function"
    }
  ],
  "bytecode": "0x608060405234801561000f575f80fd5b506112208061001d5f395ff3fe608060405234801561000f575f80fd5b5060043610610060575f3560e01c8063010d7dae14610064578063176e906a146100805780632d79ed2e1461009c5780634f54c017146100b857806378ce501c146100ec5780637ca113fc1461011c575b5f80fd5b61007e60048036038101906100799190610abf565b610151565b005b61009a60048036038101906100959190610c04565b61021d565b005b6100b660048036038101906100b19190610d19565b6102cc565b005b6100d260048036038101906100cd9190610d57565b6102fa565b6040516100e3959493929190610dfc565b60405180910390f35b61010660048036038101906101019190610d57565b6105ca565b6040516101139190610e7f565b60405180910390f35b61013660048036038101906101319190610d57565b6105e3565b60405161014896959493929190610e98565b60405180910390f35b6040518060c001604052808781526020018681526020018581526020018481526020018381526020018281525060025f8981526020019081526020015f205f820151815f0190816101a2919061111b565b5060208201518160010190816101b8919061111b565b5060408201518160020190816101ce919061111b565b5060608201518160030190816101e4919061111b565b5060808201518160040190816101fa919061111b565b5060a0820151816005019081610210919061111b565b5090505050505050505050565b6040518060a001604052808681526020018581526020018481526020018381526020018281525060015f8881526020019081526020015f205f820151815f019081610268919061111b565b50602082015181600101908161027e919061111b565b506040820151816002019081610294919061111b565b5060608201518160030190816102aa919061111b565b5060808201518160040190816102c0919061111b565b50905050505050505050565b6040518060200160405280828152505f808481526020019081526020015f205f820151815f01559050505050565b6001602052805f5260405f205f91509050805f01805461031990610f4e565b80601f016020809104026020016040519081016040528092919081815260200182805461034590610f4e565b80156103905780601f1061036757610100808354040283529160200191610390565b820191905f5260205f20905b81548152906001019060200180831161037357829003601f168201915b5050505050908060010180546103a590610f4e565b80601f01602080910402602001604051908101604052809291908181526020018280546103d190610f4e565b801561041c5780601f106103f35761010080835404028352916020019161041c565b820191905f5260205f20905b8154815290600101906020018083116103ff57829003601f168201915b50505050509080600201805461043190610f4e565b80601f016020809104026020016040519081016040528092919081815260200182805461045d90610f4e565b80156104a85780601f1061047f576101008083540402835291602001916104a8565b820191905f5260205f20905b81548152906001019060200180831161048b57829003601f168201915b5050505050908060030180546104bd90610f4e565b80601f01602080910402602001604051908101604052809291908181526020018280546104e990610f4e565b80156105345780601f1061050b57610100808354040283529160200191610534565b820191905f5260205f20905b81548152906001019060200180831161051757829003601f168201915b50505050509080600401805461054990610f4e565b80601f016020809104026020016040519081016040528092919081815260200182805461057590610f4e565b80156105c05780601f10610597576101008083540402835291602001916105c0565b820191905f5260205f20905b8154815290600101906020018083116105a357829003601f168201915b5050505050905085565b5f602052805f5260405f205f91509050805f0154905081565b6002602052805f5260405f205f91509050805f01805461060290610f4e565b80601f016020809104026020016040519081016040528092919081815260200182805461062e90610f4e565b80156106795780601f1061065057610100808354040283529160200191610679565b820191905f5260205f20905b81548152906001019060200180831161065c57829003601f168201915b50505050509080600101805461068e90610f4e565b80601f01602080910402602001604051908101604052809291908181526020018280546106ba90610f4e565b80156107055780601f106106dc57610100808354040283529160200191610705565b820191905f5260205f20905b8154815290600101906020018083116106e857829003601f168201915b50505050509080600201805461071a90610f4e565b80601f016020809104026020016040519081016040528092919081815260200182805461074690610f4e565b80156107915780601f1061076857610100808354040283529160200191610791565b820191905f5260205f20905b81548152906001019060200180831161077457829003601f168201915b5050505050908060030180546107a690610f4e565b80601f01602080910402602001604051908101604052809291908181526020018280546107d290610f4e565b801561081d5780601f106107f45761010080835404028352916020019161081d565b820191905f5260205f20905b81548152906001019060200180831161080057829003601f168201915b50505050509080600401805461083290610f4e565b80601f016020809104026020016040519081016040528092919081815260200182805461085e90610f4e565b80156108a95780601f10610880576101008083540402835291602001916108a9565b820191905f5260205f20905b81548152906001019060200180831161088c57829003601f168201915b5050505050908060050180546108be90610f4e565b80601f01602080910402602001604051908101604052809291908181526020018280546108ea90610f4e565b80156109355780601f1061090c57610100808354040283529160200191610935565b820191905f5260205f20905b81548152906001019060200180831161091857829003601f168201915b5050505050905086565b5f604051905090565b5f80fd5b5f80fd5b5f819050919050565b61096281610950565b811461096c575f80fd5b50565b5f8135905061097d81610959565b92915050565b5f80fd5b5f80fd5b5f601f19601f8301169050919050565b7f4e487b71000000000000000000000000000000000000000000000000000000005f52604160045260245ffd5b6109d18261098b565b810181811067ffffffffffffffff821117156109f0576109ef61099b565b5b80604052505050565b5f610a0261093f565b9050610a0e82826109c8565b919050565b5f67ffffffffffffffff821115610a2d57610a2c61099b565b5b610a368261098b565b9050602081019050919050565b828183375f83830152505050565b5f610a63610a5e84610a13565b6109f9565b905082815260208101848484011115610a7f57610a7e610987565b5b610a8a848285610a43565b509392505050565b5f82601f830112610aa657610aa5610983565b5b8135610ab6848260208601610a51565b91505092915050565b5f805f805f805f60e0888a031215610ada57610ad9610948565b5b5f610ae78a828b0161096f565b975050602088013567ffffffffffffffff811115610b0857610b0761094c565b5b610b148a828b01610a92565b965050604088013567ffffffffffffffff811115610b3557610b3461094c565b5b610b418a828b01610a92565b955050606088013567ffffffffffffffff811115610b6257610b6161094c565b5b610b6e8a828b01610a92565b945050608088013567ffffffffffffffff811115610b8f57610b8e61094c565b5b610b9b8a828b01610a92565b93505060a088013567ffffffffffffffff811115610bbc57610bbb61094c565b5b610bc88a828b01610a92565b92505060c088013567ffffffffffffffff811115610be957610be861094c565b5b610bf58a828b01610a92565b91505092959891949750929550565b5f805f805f8060c08789031215610c1e57610c1d610948565b5b5f610c2b89828a0161096f565b965050602087013567ffffffffffffffff811115610c4c57610c4b61094c565b5b610c5889828a01610a92565b955050604087013567ffffffffffffffff811115610c7957610c7861094c565b5b610c8589828a01610a92565b945050606087013567ffffffffffffffff811115610ca657610ca561094c565b5b610cb289828a01610a92565b935050608087013567ffffffffffffffff811115610cd357610cd261094c565b5b610cdf89828a01610a92565b92505060a087013567ffffffffffffffff811115610d0057610cff61094c565b5b610d0c89828a01610a92565b9150509295509295509295565b5f8060408385031215610d2f57610d2e610948565b5b5f610d3c8582860161096f565b9250506020610d4d8582860161096f565b9150509250929050565b5f60208284031215610d6c57610d6b610948565b5b5f610d798482850161096f565b91505092915050565b5f81519050919050565b5f82825260208201905092915050565b5f5b83811015610db9578082015181840152602081019050610d9e565b5f8484015250505050565b5f610dce82610d82565b610dd88185610d8c565b9350610de8818560208601610d9c565b610df18161098b565b840191505092915050565b5f60a0820190508181035f830152610e148188610dc4565b90508181036020830152610e288187610dc4565b90508181036040830152610e3c8186610dc4565b90508181036060830152610e508185610dc4565b90508181036080830152610e648184610dc4565b90509695505050505050565b610e7981610950565b82525050565b5f602082019050610e925f830184610e70565b92915050565b5f60c0820190508181035f830152610eb08189610dc4565b90508181036020830152610ec48188610dc4565b90508181036040830152610ed88187610dc4565b90508181036060830152610eec8186610dc4565b90508181036080830152610f008185610dc4565b905081810360a0830152610f148184610dc4565b9050979650505050505050565b7f4e487b71000000000000000000000000000000000000000000000000000000005f52602260045260245ffd5b5f6002820490506001821680610f6557607f821691505b602082108103610f7857610f77610f21565b5b50919050565b5f819050815f5260205f209050919050565b5f6020601f8301049050919050565b5f82821b905092915050565b5f60088302610fda7fffffffffffffffffffffffffffffffffffffffffffffffffffffffffffffffff82610f9f565b610fe48683610f9f565b95508019841693508086168417925050509392505050565b5f819050919050565b5f61101f61101a61101584610950565b610ffc565b610950565b9050919050565b5f819050919050565b61103883611005565b61104c61104482611026565b848454610fab565b825550505050565b5f90565b611060611054565b61106b81848461102f565b505050565b5b8181101561108e576110835f82611058565b600181019050611071565b5050565b601f8211156110d3576110a481610f7e565b6110ad84610f90565b810160208510156110bc578190505b6110d06110c885610f90565b830182611070565b50505b505050565b5f82821c905092915050565b5f6110f35f19846008026110d8565b1980831691505092915050565b5f61110b83836110e4565b9150826002028217905092915050565b61112482610d82565b67ffffffffffffffff81111561113d5761113c61099b565b5b6111478254610f4e565b611152828285611092565b5f60209050601f831160018114611183575f8415611171578287015190505b61117b8582611100565b8655506111e2565b601f19841661119186610f7e565b5f5b828110156111b857848901518255600182019150602085019450602081019050611193565b868310156111d557848901516111d1601f8916826110e4565b8355505b6001600288020188555050505b50505050505056fea264697066735822122064b77a3c54d0ba00462c1ab4fcdd63585e37cdc87a1f575c2707a282c9c521d864736f6c63430008150033",
  "immutableReferences": {},
  "source": "// SPDX-License-Identifier: MIT\r\npragma solidity ^0.8.0;\r\n\r\ncontract MedicalData {\r\n\r\n    //      (  )\r\n    struct IntegrityAndAvailability {\r\n        uint referralNumber;\r\n    }\r\n\r\n    //      ()\r\n    struct Integrity {\r\n        string patientName;\r\n        string familyDoctorName;\r\n        string referralDate;\r\n        string medicalInstitutionName;\r\n        string medicalInstitutionAddress;\r\n    }\r\n\r\n    //      ()\r\n    struct Availability {\r\n        string birthDate;\r\n        string phoneNumber;\r\n        string priority;\r\n        string validityPeriod;\r\n        string serviceCode;\r\n        string edrpouCode;\r\n    }\r\n\r\n    //    \r\n    mapping(uint => IntegrityAndAvailability) public integrityAndAvailabilityData;\r\n    mapping(uint => Integrity) public integrityData;\r\n    mapping(uint => Availability) public availabilityData;\r\n\r\n    //      \r\n    function addIntegrityAndAvailabilityData(uint _key, uint _referralNumber) public {\r\n        integrityAndAvailabilityData[_key] = IntegrityAndAvailability(_referralNumber);\r\n    }\r\n\r\n    //      \r\n    function addIntegrityData(\r\n        uint _key,\r\n        string memory _patientName,\r\n        string memory _familyDoctorName,\r\n        string memory _referralDate,\r\n        string memory _medicalInstitutionName,\r\n        string memory _medicalInstitutionAddress\r\n    ) public {\r\n        integrityData[_key] = Integrity({\r\n            patientName: _patientName,\r\n            familyDoctorName: _familyDoctorName,\r\n            referralDate: _referralDate,\r\n            medicalInstitutionName: _medicalInstitutionName,\r\n            medicalInstitutionAddress: _medicalInstitutionAddress\r\n        });\r\n    }\r\n\r\n    //      \r\n    function addAvailabilityData(\r\n        uint _key,\r\n        string memory _birthDate,\r\n        string memory _phoneNumber,\r\n        string memory _priority,\r\n        string memory _validityPeriod,\r\n        string memory _serviceCode,\r\n        string memory _edrpouCode\r\n    ) public {\r\n        availabilityData[_key] = Availability({\r\n            birthDate: _birthDate,\r\n            phoneNumber: _phoneNumber,\r\n            priority: _priority,\r\n            validityPeriod: _validityPeriod,\r\n            serviceCode: _serviceCode,\r\n            edrpouCode: _edrpouCode\r\n        });\r\n    }\r\n}\r\n",
  "sourcePath": "D:\\4 \\ \\dyplom\\contracts\\Integrity.sol",
  "compiler": {
    "name": "solc",
    "version": "0.8.21+commit.d9974bed.Emscripten.clang"
  },
  "schemaVersion": "3.4.16",
  "updatedAt": "2024-06-06T06:27:12.464Z",
  "devdoc": {
    "kind": "dev",
    "methods": {},
    "version": 1
  },
  "userdoc": {
    "kind": "user",
    "methods": {},
    "version": 1
  }
}