{
  "contractName": "ReferralContract",
  "abi": [
    {
      "inputs": [
        {
          "internalType": "uint256",
          "name": "",
          "type": "uint256"
        }
      ],
      "name": "availabilityData",
      "outputs": [
        {
          "internalType": "string",
          "name": "priority",
          "type": "string"
        },
        {
          "internalType": "string",
          "name": "validityPeriod",
          "type": "string"
        },
        {
          "internalType": "string",
          "name": "edrpouCode",
          "type": "string"
        },
        {
          "internalType": "string",
          "name": "serviceCode",
          "type": "string"
        }
      ],
      "stateMutability": "view",
      "type": "function"
    },
    {
      "inputs": [
        {
          "internalType": "uint256",
          "name": "",
          "type": "uint256"
        }
      ],
      "name": "integrityData",
      "outputs": [
        {
          "internalType": "string",
          "name": "patientFullName",
          "type": "string"
        },
        {
          "internalType": "string",
          "name": "referralDate",
          "type": "string"
        },
        {
          "internalType": "string",
          "name": "healthCareFacilityName",
          "type": "string"
        }
      ],
      "stateMutability": "view",
      "type": "function"
    },
    {
      "inputs": [
        {
          "internalType": "string",
          "name": "_patientFullName",
          "type": "string"
        },
        {
          "internalType": "string",
          "name": "_referralDate",
          "type": "string"
        },
        {
          "internalType": "string",
          "name": "_healthCareFacilityName",
          "type": "string"
        }
      ],
      "name": "addIntegrityData",
      "outputs": [],
      "stateMutability": "nonpayable",
      "type": "function"
    },
    {
      "inputs": [
        {
          "internalType": "string",
          "name": "_priority",
          "type": "string"
        },
        {
          "internalType": "string",
          "name": "_validityPeriod",
          "type": "string"
        },
        {
          "internalType": "string",
          "name": "_edrpouCode",
          "type": "string"
        },
        {
          "internalType": "string",
          "name": "_serviceCode",
          "type": "string"
        }
      ],
      "name": "addAvailabilityData",
      "outputs": [],
      "stateMutability": "nonpayable",
      "type": "function"
    }
  ],
  "bytecode": "0x608060405234801561000f575f80fd5b50610d798061001d5f395ff3fe608060405234801561000f575f80fd5b506004361061004a575f3560e01c806337075ab21461004e5780634f54c0171461006a5780637ca113fc1461009c578063cc5b39ed146100cf575b5f80fd5b61006860048036038101906100639190610781565b6100eb565b005b610084600480360381019061007f9190610858565b610174565b604051610093939291906108fd565b60405180910390f35b6100b660048036038101906100b19190610858565b61033a565b6040516100c69493929190610947565b60405180910390f35b6100e960048036038101906100e491906109a6565b61058d565b005b5f604051806060016040528085815260200184815260200183815250908060018154018082558091505060019003905f5260205f2090600302015f909190919091505f820151815f0190816101409190610c74565b5060208201518160010190816101569190610c74565b50604082015181600201908161016c9190610c74565b505050505050565b5f8181548110610182575f80fd5b905f5260205f2090600302015f91509050805f0180546101a190610aa7565b80601f01602080910402602001604051908101604052809291908181526020018280546101cd90610aa7565b80156102185780601f106101ef57610100808354040283529160200191610218565b820191905f5260205f20905b8154815290600101906020018083116101fb57829003601f168201915b50505050509080600101805461022d90610aa7565b80601f016020809104026020016040519081016040528092919081815260200182805461025990610aa7565b80156102a45780601f1061027b576101008083540402835291602001916102a4565b820191905f5260205f20905b81548152906001019060200180831161028757829003601f168201915b5050505050908060020180546102b990610aa7565b80601f01602080910402602001604051908101604052809291908181526020018280546102e590610aa7565b80156103305780601f1061030757610100808354040283529160200191610330565b820191905f5260205f20905b81548152906001019060200180831161031357829003601f168201915b5050505050905083565b60018181548110610349575f80fd5b905f5260205f2090600402015f91509050805f01805461036890610aa7565b80601f016020809104026020016040519081016040528092919081815260200182805461039490610aa7565b80156103df5780601f106103b6576101008083540402835291602001916103df565b820191905f5260205f20905b8154815290600101906020018083116103c257829003601f168201915b5050505050908060010180546103f490610aa7565b80601f016020809104026020016040519081016040528092919081815260200182805461042090610aa7565b801561046b5780601f106104425761010080835404028352916020019161046b565b820191905f5260205f20905b81548152906001019060200180831161044e57829003601f168201915b50505050509080600201805461048090610aa7565b80601f01602080910402602001604051908101604052809291908181526020018280546104ac90610aa7565b80156104f75780601f106104ce576101008083540402835291602001916104f7565b820191905f5260205f20905b8154815290600101906020018083116104da57829003601f168201915b50505050509080600301805461050c90610aa7565b80601f016020809104026020016040519081016040528092919081815260200182805461053890610aa7565b80156105835780601f1061055a57610100808354040283529160200191610583565b820191905f5260205f20905b81548152906001019060200180831161056657829003601f168201915b5050505050905084565b6001604051806080016040528086815260200185815260200184815260200183815250908060018154018082558091505060019003905f5260205f2090600402015f909190919091505f820151815f0190816105e99190610c74565b5060208201518160010190816105ff9190610c74565b5060408201518160020190816106159190610c74565b50606082015181600301908161062b9190610c74565b50505050505050565b5f604051905090565b5f80fd5b5f80fd5b5f80fd5b5f80fd5b5f601f19601f8301169050919050565b7f4e487b71000000000000000000000000000000000000000000000000000000005f52604160045260245ffd5b6106938261064d565b810181811067ffffffffffffffff821117156106b2576106b161065d565b5b80604052505050565b5f6106c4610634565b90506106d0828261068a565b919050565b5f67ffffffffffffffff8211156106ef576106ee61065d565b5b6106f88261064d565b9050602081019050919050565b828183375f83830152505050565b5f610725610720846106d5565b6106bb565b90508281526020810184848401111561074157610740610649565b5b61074c848285610705565b509392505050565b5f82601f83011261076857610767610645565b5b8135610778848260208601610713565b91505092915050565b5f805f606084860312156107985761079761063d565b5b5f84013567ffffffffffffffff8111156107b5576107b4610641565b5b6107c186828701610754565b935050602084013567ffffffffffffffff8111156107e2576107e1610641565b5b6107ee86828701610754565b925050604084013567ffffffffffffffff81111561080f5761080e610641565b5b61081b86828701610754565b9150509250925092565b5f819050919050565b61083781610825565b8114610841575f80fd5b50565b5f813590506108528161082e565b92915050565b5f6020828403121561086d5761086c61063d565b5b5f61087a84828501610844565b91505092915050565b5f81519050919050565b5f82825260208201905092915050565b5f5b838110156108ba57808201518184015260208101905061089f565b5f8484015250505050565b5f6108cf82610883565b6108d9818561088d565b93506108e981856020860161089d565b6108f28161064d565b840191505092915050565b5f6060820190508181035f83015261091581866108c5565b9050818103602083015261092981856108c5565b9050818103604083015261093d81846108c5565b9050949350505050565b5f6080820190508181035f83015261095f81876108c5565b9050818103602083015261097381866108c5565b9050818103604083015261098781856108c5565b9050818103606083015261099b81846108c5565b905095945050505050565b5f805f80608085870312156109be576109bd61063d565b5b5f85013567ffffffffffffffff8111156109db576109da610641565b5b6109e787828801610754565b945050602085013567ffffffffffffffff811115610a0857610a07610641565b5b610a1487828801610754565b935050604085013567ffffffffffffffff811115610a3557610a34610641565b5b610a4187828801610754565b925050606085013567ffffffffffffffff811115610a6257610a61610641565b5b610a6e87828801610754565b91505092959194509250565b7f4e487b71000000000000000000000000000000000000000000000000000000005f52602260045260245ffd5b5f6002820490506001821680610abe57607f821691505b602082108103610ad157610ad0610a7a565b5b50919050565b5f819050815f5260205f209050919050565b5f6020601f8301049050919050565b5f82821b905092915050565b5f60088302610b337fffffffffffffffffffffffffffffffffffffffffffffffffffffffffffffffff82610af8565b610b3d8683610af8565b95508019841693508086168417925050509392505050565b5f819050919050565b5f610b78610b73610b6e84610825565b610b55565b610825565b9050919050565b5f819050919050565b610b9183610b5e565b610ba5610b9d82610b7f565b848454610b04565b825550505050565b5f90565b610bb9610bad565b610bc4818484610b88565b505050565b5b81811015610be757610bdc5f82610bb1565b600181019050610bca565b5050565b601f821115610c2c57610bfd81610ad7565b610c0684610ae9565b81016020851015610c15578190505b610c29610c2185610ae9565b830182610bc9565b50505b505050565b5f82821c905092915050565b5f610c4c5f1984600802610c31565b1980831691505092915050565b5f610c648383610c3d565b9150826002028217905092915050565b610c7d82610883565b67ffffffffffffffff811115610c9657610c9561065d565b5b610ca08254610aa7565b610cab828285610beb565b5f60209050601f831160018114610cdc575f8415610cca578287015190505b610cd48582610c59565b865550610d3b565b601f198416610cea86610ad7565b5f5b82811015610d1157848901518255600182019150602085019450602081019050610cec565b86831015610d2e5784890151610d2a601f891682610c3d565b8355505b6001600288020188555050505b50505050505056fea264697066735822122012a15975c1ebc6277f058abec0d4609cdd5283ed91248cdb87d57e1838f55ddd64736f6c63430008150033",
  "immutableReferences": {},
  "source": "// SPDX-License-Identifier: MIT\r\npragma solidity ^0.8.0;\r\n\r\ncontract ReferralContract {\r\n    struct IntegrityData {\r\n        string patientFullName;\r\n        string referralDate;\r\n        string healthCareFacilityName;\r\n    }\r\n\r\n    struct AvailabilityData {\r\n        string priority;\r\n        string validityPeriod;\r\n        string edrpouCode;\r\n        string serviceCode;\r\n    }\r\n\r\n    IntegrityData[] public integrityData;\r\n    AvailabilityData[] public availabilityData;\r\n\r\n    function addIntegrityData(\r\n        string memory _patientFullName,\r\n        string memory _referralDate,\r\n        string memory _healthCareFacilityName\r\n    ) public {\r\n        integrityData.push(IntegrityData(_patientFullName, _referralDate, _healthCareFacilityName));\r\n    }\r\n\r\n    function addAvailabilityData(\r\n        string memory _priority,\r\n        string memory _validityPeriod,\r\n        string memory _edrpouCode,\r\n        string memory _serviceCode\r\n    ) public {\r\n        availabilityData.push(AvailabilityData(_priority, _validityPeriod, _edrpouCode, _serviceCode));\r\n    }\r\n}\r\n\r\n",
  "sourcePath": "D:\\4 \\ \\dyplom\\contracts\\Referrals.sol",
  "compiler": {
    "name": "solc",
    "version": "0.8.21+commit.d9974bed.Emscripten.clang"
  },
  "schemaVersion": "3.4.16",
  "updatedAt": "2024-06-06T06:27:12.482Z",
  "devdoc": {
    "kind": "dev",
    "methods": {},
    "version": 1
  },
  "userdoc": {
    "kind": "user",
    "methods": {},
    "version": 1
  }
}