{
  "contractName": "Referrals_new",
  "abi": [
    {
      "inputs": [
        {
          "internalType": "uint256",
          "name": "",
          "type": "uint256"
        }
      ],
      "name": "availabilityData",
      "outputs": [
        {
          "internalType": "string",
          "name": "priority",
          "type": "string"
        },
        {
          "internalType": "string",
          "name": "validityPeriod",
          "type": "string"
        },
        {
          "internalType": "string",
          "name": "edrpouCode",
          "type": "string"
        },
        {
          "internalType": "string",
          "name": "serviceCode",
          "type": "string"
        }
      ],
      "stateMutability": "view",
      "type": "function"
    },
    {
      "inputs": [
        {
          "internalType": "uint256",
          "name": "",
          "type": "uint256"
        }
      ],
      "name": "confIntAvData",
      "outputs": [
        {
          "internalType": "bytes32",
          "name": "examinationNameHash",
          "type": "bytes32"
        },
        {
          "internalType": "bytes32",
          "name": "specialistHash",
          "type": "bytes32"
        }
      ],
      "stateMutability": "view",
      "type": "function"
    },
    {
      "inputs": [
        {
          "internalType": "uint256",
          "name": "",
          "type": "uint256"
        }
      ],
      "name": "confIntData",
      "outputs": [
        {
          "internalType": "bytes32",
          "name": "medicalCardNumberHash",
          "type": "bytes32"
        }
      ],
      "stateMutability": "view",
      "type": "function"
    },
    {
      "inputs": [
        {
          "internalType": "uint256",
          "name": "",
          "type": "uint256"
        }
      ],
      "name": "integrityAvailabilityData",
      "outputs": [
        {
          "internalType": "string",
          "name": "referralNumber",
          "type": "string"
        }
      ],
      "stateMutability": "view",
      "type": "function"
    },
    {
      "inputs": [
        {
          "internalType": "uint256",
          "name": "",
          "type": "uint256"
        }
      ],
      "name": "integrityData",
      "outputs": [
        {
          "internalType": "string",
          "name": "patientFullName",
          "type": "string"
        },
        {
          "internalType": "string",
          "name": "referralDate",
          "type": "string"
        },
        {
          "internalType": "string",
          "name": "healthCareFacilityName",
          "type": "string"
        }
      ],
      "stateMutability": "view",
      "type": "function"
    },
    {
      "inputs": [
        {
          "internalType": "string",
          "name": "_patientFullName",
          "type": "string"
        },
        {
          "internalType": "string",
          "name": "_referralDate",
          "type": "string"
        },
        {
          "internalType": "string",
          "name": "_healthCareFacilityName",
          "type": "string"
        }
      ],
      "name": "addIntegrityData",
      "outputs": [],
      "stateMutability": "nonpayable",
      "type": "function"
    },
    {
      "inputs": [
        {
          "internalType": "string",
          "name": "_priority",
          "type": "string"
        },
        {
          "internalType": "string",
          "name": "_validityPeriod",
          "type": "string"
        },
        {
          "internalType": "string",
          "name": "_edrpouCode",
          "type": "string"
        },
        {
          "internalType": "string",
          "name": "_serviceCode",
          "type": "string"
        }
      ],
      "name": "addAvailabilityData",
      "outputs": [],
      "stateMutability": "nonpayable",
      "type": "function"
    },
    {
      "inputs": [
        {
          "internalType": "string",
          "name": "_referralNumber",
          "type": "string"
        }
      ],
      "name": "addIntegrityAvailabilityData",
      "outputs": [],
      "stateMutability": "nonpayable",
      "type": "function"
    },
    {
      "inputs": [
        {
          "internalType": "bytes32",
          "name": "_medicalCardNumberHash",
          "type": "bytes32"
        }
      ],
      "name": "addConfIntData",
      "outputs": [],
      "stateMutability": "nonpayable",
      "type": "function"
    },
    {
      "inputs": [
        {
          "internalType": "bytes32",
          "name": "_examinationNameHash",
          "type": "bytes32"
        },
        {
          "internalType": "bytes32",
          "name": "_specialistHash",
          "type": "bytes32"
        }
      ],
      "name": "addConfIntAvData",
      "outputs": [],
      "stateMutability": "nonpayable",
      "type": "function"
    },
    {
      "inputs": [
        {
          "internalType": "string",
          "name": "_str",
          "type": "string"
        }
      ],
      "name": "hashString",
      "outputs": [
        {
          "internalType": "bytes32",
          "name": "",
          "type": "bytes32"
        }
      ],
      "stateMutability": "pure",
      "type": "function"
    }
  ],
  "bytecode": "0x608060405234801561000f575f80fd5b5061129c8061001d5f395ff3fe608060405234801561000f575f80fd5b50600436106100a7575f3560e01c80637ca113fc1161006f5780637ca113fc146101895780637ffdc5e3146101bc578063ac182ce0146101ed578063c5c4c23d14610209578063cc5b39ed14610225578063dc3eb47314610241576100a7565b8063296c0d42146100ab57806337075ab2146100db578063383ea460146100f75780634f54c01714610127578063766954b414610159575b5f80fd5b6100c560048036038101906100c091906109f9565b61025d565b6040516100d29190610aae565b60405180910390f35b6100f560048036038101906100f09190610bfa565b610308565b005b610111600480360381019061010c91906109f9565b610391565b60405161011e9190610cb6565b60405180910390f35b610141600480360381019061013c91906109f9565b6103b6565b60405161015093929190610ccf565b60405180910390f35b610173600480360381019061016e9190610d19565b61057c565b6040516101809190610cb6565b60405180910390f35b6101a3600480360381019061019e91906109f9565b6105ab565b6040516101b39493929190610d60565b60405180910390f35b6101d660048036038101906101d191906109f9565b6107fe565b6040516101e4929190610dbf565b60405180910390f35b61020760048036038101906102029190610e10565b61082d565b005b610223600480360381019061021e9190610d19565b610882565b005b61023f600480360381019061023a9190610e4e565b6108ce565b005b61025b60048036038101906102569190610f22565b610975565b005b6002818154811061026c575f80fd5b905f5260205f20015f91509050805f01805461028790610f7a565b80601f01602080910402602001604051908101604052809291908181526020018280546102b390610f7a565b80156102fe5780601f106102d5576101008083540402835291602001916102fe565b820191905f5260205f20905b8154815290600101906020018083116102e157829003601f168201915b5050505050905081565b5f604051806060016040528085815260200184815260200183815250908060018154018082558091505060019003905f5260205f2090600302015f909190919091505f820151815f01908161035d9190611147565b5060208201518160010190816103739190611147565b5060408201518160020190816103899190611147565b505050505050565b600381815481106103a0575f80fd5b905f5260205f20015f91509050805f0154905081565b5f81815481106103c4575f80fd5b905f5260205f2090600302015f91509050805f0180546103e390610f7a565b80601f016020809104026020016040519081016040528092919081815260200182805461040f90610f7a565b801561045a5780601f106104315761010080835404028352916020019161045a565b820191905f5260205f20905b81548152906001019060200180831161043d57829003601f168201915b50505050509080600101805461046f90610f7a565b80601f016020809104026020016040519081016040528092919081815260200182805461049b90610f7a565b80156104e65780601f106104bd576101008083540402835291602001916104e6565b820191905f5260205f20905b8154815290600101906020018083116104c957829003601f168201915b5050505050908060020180546104fb90610f7a565b80601f016020809104026020016040519081016040528092919081815260200182805461052790610f7a565b80156105725780601f1061054957610100808354040283529160200191610572565b820191905f5260205f20905b81548152906001019060200180831161055557829003601f168201915b5050505050905083565b5f8160405160200161058e9190611250565b604051602081830303815290604052805190602001209050919050565b600181815481106105ba575f80fd5b905f5260205f2090600402015f91509050805f0180546105d990610f7a565b80601f016020809104026020016040519081016040528092919081815260200182805461060590610f7a565b80156106505780601f1061062757610100808354040283529160200191610650565b820191905f5260205f20905b81548152906001019060200180831161063357829003601f168201915b50505050509080600101805461066590610f7a565b80601f016020809104026020016040519081016040528092919081815260200182805461069190610f7a565b80156106dc5780601f106106b3576101008083540402835291602001916106dc565b820191905f5260205f20905b8154815290600101906020018083116106bf57829003601f168201915b5050505050908060020180546106f190610f7a565b80601f016020809104026020016040519081016040528092919081815260200182805461071d90610f7a565b80156107685780601f1061073f57610100808354040283529160200191610768565b820191905f5260205f20905b81548152906001019060200180831161074b57829003601f168201915b50505050509080600301805461077d90610f7a565b80601f01602080910402602001604051908101604052809291908181526020018280546107a990610f7a565b80156107f45780601f106107cb576101008083540402835291602001916107f4565b820191905f5260205f20905b8154815290600101906020018083116107d757829003601f168201915b5050505050905084565b6004818154811061080d575f80fd5b905f5260205f2090600202015f91509050805f0154908060010154905082565b6004604051806040016040528084815260200183815250908060018154018082558091505060019003905f5260205f2090600202015f909190919091505f820151815f01556020820151816001015550505050565b6002604051806020016040528083815250908060018154018082558091505060019003905f5260205f20015f909190919091505f820151815f0190816108c89190611147565b50505050565b6001604051806080016040528086815260200185815260200184815260200183815250908060018154018082558091505060019003905f5260205f2090600402015f909190919091505f820151815f01908161092a9190611147565b5060208201518160010190816109409190611147565b5060408201518160020190816109569190611147565b50606082015181600301908161096c9190611147565b50505050505050565b6003604051806020016040528083815250908060018154018082558091505060019003905f5260205f20015f909190919091505f820151815f0155505050565b5f604051905090565b5f80fd5b5f80fd5b5f819050919050565b6109d8816109c6565b81146109e2575f80fd5b50565b5f813590506109f3816109cf565b92915050565b5f60208284031215610a0e57610a0d6109be565b5b5f610a1b848285016109e5565b91505092915050565b5f81519050919050565b5f82825260208201905092915050565b5f5b83811015610a5b578082015181840152602081019050610a40565b5f8484015250505050565b5f601f19601f8301169050919050565b5f610a8082610a24565b610a8a8185610a2e565b9350610a9a818560208601610a3e565b610aa381610a66565b840191505092915050565b5f6020820190508181035f830152610ac68184610a76565b905092915050565b5f80fd5b5f80fd5b7f4e487b71000000000000000000000000000000000000000000000000000000005f52604160045260245ffd5b610b0c82610a66565b810181811067ffffffffffffffff82111715610b2b57610b2a610ad6565b5b80604052505050565b5f610b3d6109b5565b9050610b498282610b03565b919050565b5f67ffffffffffffffff821115610b6857610b67610ad6565b5b610b7182610a66565b9050602081019050919050565b828183375f83830152505050565b5f610b9e610b9984610b4e565b610b34565b905082815260208101848484011115610bba57610bb9610ad2565b5b610bc5848285610b7e565b509392505050565b5f82601f830112610be157610be0610ace565b5b8135610bf1848260208601610b8c565b91505092915050565b5f805f60608486031215610c1157610c106109be565b5b5f84013567ffffffffffffffff811115610c2e57610c2d6109c2565b5b610c3a86828701610bcd565b935050602084013567ffffffffffffffff811115610c5b57610c5a6109c2565b5b610c6786828701610bcd565b925050604084013567ffffffffffffffff811115610c8857610c876109c2565b5b610c9486828701610bcd565b9150509250925092565b5f819050919050565b610cb081610c9e565b82525050565b5f602082019050610cc95f830184610ca7565b92915050565b5f6060820190508181035f830152610ce78186610a76565b90508181036020830152610cfb8185610a76565b90508181036040830152610d0f8184610a76565b9050949350505050565b5f60208284031215610d2e57610d2d6109be565b5b5f82013567ffffffffffffffff811115610d4b57610d4a6109c2565b5b610d5784828501610bcd565b91505092915050565b5f6080820190508181035f830152610d788187610a76565b90508181036020830152610d8c8186610a76565b90508181036040830152610da08185610a76565b90508181036060830152610db48184610a76565b905095945050505050565b5f604082019050610dd25f830185610ca7565b610ddf6020830184610ca7565b9392505050565b610def81610c9e565b8114610df9575f80fd5b50565b5f81359050610e0a81610de6565b92915050565b5f8060408385031215610e2657610e256109be565b5b5f610e3385828601610dfc565b9250506020610e4485828601610dfc565b9150509250929050565b5f805f8060808587031215610e6657610e656109be565b5b5f85013567ffffffffffffffff811115610e8357610e826109c2565b5b610e8f87828801610bcd565b945050602085013567ffffffffffffffff811115610eb057610eaf6109c2565b5b610ebc87828801610bcd565b935050604085013567ffffffffffffffff811115610edd57610edc6109c2565b5b610ee987828801610bcd565b925050606085013567ffffffffffffffff811115610f0a57610f096109c2565b5b610f1687828801610bcd565b91505092959194509250565b5f60208284031215610f3757610f366109be565b5b5f610f4484828501610dfc565b91505092915050565b7f4e487b71000000000000000000000000000000000000000000000000000000005f52602260045260245ffd5b5f6002820490506001821680610f9157607f821691505b602082108103610fa457610fa3610f4d565b5b50919050565b5f819050815f5260205f209050919050565b5f6020601f8301049050919050565b5f82821b905092915050565b5f600883026110067fffffffffffffffffffffffffffffffffffffffffffffffffffffffffffffffff82610fcb565b6110108683610fcb565b95508019841693508086168417925050509392505050565b5f819050919050565b5f61104b611046611041846109c6565b611028565b6109c6565b9050919050565b5f819050919050565b61106483611031565b61107861107082611052565b848454610fd7565b825550505050565b5f90565b61108c611080565b61109781848461105b565b505050565b5b818110156110ba576110af5f82611084565b60018101905061109d565b5050565b601f8211156110ff576110d081610faa565b6110d984610fbc565b810160208510156110e8578190505b6110fc6110f485610fbc565b83018261109c565b50505b505050565b5f82821c905092915050565b5f61111f5f1984600802611104565b1980831691505092915050565b5f6111378383611110565b9150826002028217905092915050565b61115082610a24565b67ffffffffffffffff81111561116957611168610ad6565b5b6111738254610f7a565b61117e8282856110be565b5f60209050601f8311600181146111af575f841561119d578287015190505b6111a7858261112c565b86555061120e565b601f1984166111bd86610faa565b5f5b828110156111e4578489015182556001820191506020850194506020810190506111bf565b8683101561120157848901516111fd601f891682611110565b8355505b6001600288020188555050505b505050505050565b5f81905092915050565b5f61122a82610a24565b6112348185611216565b9350611244818560208601610a3e565b80840191505092915050565b5f61125b8284611220565b91508190509291505056fea2646970667358221220b83e329d5a8173d44b5c33e57d570c1ff3d9c09eea4eed8688b6d938451bcab864736f6c63430008150033",
  "immutableReferences": {},
  "source": "// SPDX-License-Identifier: MIT\r\npragma solidity ^0.8.0;\r\ncontract Referrals_new {\r\n    struct IntegrityData {\r\n        string patientFullName;\r\n        string referralDate;\r\n        string healthCareFacilityName;\r\n    }\r\n\r\n    struct AvailabilityData {\r\n        string priority;\r\n        string validityPeriod;\r\n        string edrpouCode;\r\n        string serviceCode;\r\n    }\r\n\r\n    struct IntegrityAvailabilityData {\r\n        string referralNumber;\r\n    }\r\n\r\n    struct ConfIntData {\r\n        bytes32 medicalCardNumberHash;\r\n    }\r\n\r\n    struct ConfIntAvData {\r\n        bytes32 examinationNameHash;\r\n        bytes32 specialistHash;\r\n    }\r\n\r\n    IntegrityData[] public integrityData;\r\n    AvailabilityData[] public availabilityData;\r\n    IntegrityAvailabilityData[] public integrityAvailabilityData;\r\n    ConfIntData[] public confIntData;\r\n    ConfIntAvData[] public confIntAvData;\r\n\r\n    function addIntegrityData(\r\n        string memory _patientFullName,\r\n        string memory _referralDate,\r\n        string memory _healthCareFacilityName\r\n    ) public {\r\n        integrityData.push(IntegrityData(_patientFullName, _referralDate, _healthCareFacilityName));\r\n    }\r\n\r\n    function addAvailabilityData(\r\n        string memory _priority,\r\n        string memory _validityPeriod,\r\n        string memory _edrpouCode,\r\n        string memory _serviceCode\r\n    ) public {\r\n        availabilityData.push(AvailabilityData(_priority, _validityPeriod, _edrpouCode, _serviceCode));\r\n    }\r\n\r\n    function addIntegrityAvailabilityData(\r\n        string memory _referralNumber\r\n    ) public {\r\n        integrityAvailabilityData.push(IntegrityAvailabilityData(_referralNumber));\r\n    }\r\n\r\n    function addConfIntData(\r\n        bytes32 _medicalCardNumberHash\r\n    ) public {\r\n        confIntData.push(ConfIntData(_medicalCardNumberHash));\r\n    }\r\n\r\n    function addConfIntAvData(\r\n        bytes32 _examinationNameHash,\r\n        bytes32 _specialistHash\r\n    ) public {\r\n        confIntAvData.push(ConfIntAvData(_examinationNameHash, _specialistHash));\r\n    }\r\n\r\n    function hashString(string memory _str) public pure returns (bytes32) {\r\n        return keccak256(abi.encodePacked(_str));\r\n    }\r\n\r\n}\r\n",
  "sourcePath": "D:\\4 \\ \\dyplom\\contracts\\Referrals_new.sol",
  "compiler": {
    "name": "solc",
    "version": "0.8.21+commit.d9974bed.Emscripten.clang"
  },
  "schemaVersion": "3.4.16",
  "updatedAt": "2024-06-06T06:27:12.514Z",
  "devdoc": {
    "kind": "dev",
    "methods": {},
    "version": 1
  },
  "userdoc": {
    "kind": "user",
    "methods": {},
    "version": 1
  }
}